{
  "_format": "hh-sol-artifact-1",
  "contractName": "AnonymousInnovationEvaluation",
  "sourceName": "contracts/AnonymousInnovationEvaluation.sol",
  "abi": [
    {
      "inputs": [],
      "stateMutability": "nonpayable",
      "type": "constructor"
    },
    {
      "inputs": [],
      "name": "HandlesAlreadySavedForRequestID",
      "type": "error"
    },
    {
      "inputs": [],
      "name": "InvalidKMSSignatures",
      "type": "error"
    },
    {
      "inputs": [],
      "name": "NoHandleFoundForRequestID",
      "type": "error"
    },
    {
      "anonymous": false,
      "inputs": [
        {
          "indexed": true,
          "internalType": "uint256",
          "name": "requestID",
          "type": "uint256"
        }
      ],
      "name": "DecryptionFulfilled",
      "type": "event"
    },
    {
      "anonymous": false,
      "inputs": [
        {
          "indexed": true,
          "internalType": "uint32",
          "name": "periodId",
          "type": "uint32"
        },
        {
          "indexed": false,
          "internalType": "uint256",
          "name": "startTime",
          "type": "uint256"
        },
        {
          "indexed": false,
          "internalType": "uint256",
          "name": "endTime",
          "type": "uint256"
        }
      ],
      "name": "EvaluationPeriodStarted",
      "type": "event"
    },
    {
      "anonymous": false,
      "inputs": [
        {
          "indexed": true,
          "internalType": "uint32",
          "name": "projectId",
          "type": "uint32"
        },
        {
          "indexed": true,
          "internalType": "address",
          "name": "evaluator",
          "type": "address"
        },
        {
          "indexed": false,
          "internalType": "uint32",
          "name": "evaluationPeriod",
          "type": "uint32"
        }
      ],
      "name": "EvaluationSubmitted",
      "type": "event"
    },
    {
      "anonymous": false,
      "inputs": [
        {
          "indexed": true,
          "internalType": "address",
          "name": "evaluator",
          "type": "address"
        }
      ],
      "name": "EvaluatorAuthorized",
      "type": "event"
    },
    {
      "anonymous": false,
      "inputs": [
        {
          "indexed": true,
          "internalType": "address",
          "name": "evaluator",
          "type": "address"
        }
      ],
      "name": "EvaluatorRevoked",
      "type": "event"
    },
    {
      "anonymous": false,
      "inputs": [
        {
          "indexed": true,
          "internalType": "uint32",
          "name": "projectId",
          "type": "uint32"
        },
        {
          "indexed": true,
          "internalType": "address",
          "name": "submitter",
          "type": "address"
        },
        {
          "indexed": false,
          "internalType": "string",
          "name": "title",
          "type": "string"
        }
      ],
      "name": "ProjectSubmitted",
      "type": "event"
    },
    {
      "anonymous": false,
      "inputs": [
        {
          "indexed": true,
          "internalType": "uint32",
          "name": "projectId",
          "type": "uint32"
        },
        {
          "indexed": false,
          "internalType": "uint32",
          "name": "finalScore",
          "type": "uint32"
        },
        {
          "indexed": false,
          "internalType": "uint32",
          "name": "ranking",
          "type": "uint32"
        }
      ],
      "name": "ResultsRevealed",
      "type": "event"
    },
    {
      "inputs": [
        {
          "internalType": "address",
          "name": "evaluator",
          "type": "address"
        }
      ],
      "name": "authorizeEvaluator",
      "outputs": [],
      "stateMutability": "nonpayable",
      "type": "function"
    },
    {
      "inputs": [
        {
          "internalType": "address",
          "name": "",
          "type": "address"
        }
      ],
      "name": "authorizedEvaluators",
      "outputs": [
        {
          "internalType": "bool",
          "name": "",
          "type": "bool"
        }
      ],
      "stateMutability": "view",
      "type": "function"
    },
    {
      "inputs": [],
      "name": "endEvaluationPeriod",
      "outputs": [],
      "stateMutability": "nonpayable",
      "type": "function"
    },
    {
      "inputs": [],
      "name": "evaluationPeriod",
      "outputs": [
        {
          "internalType": "uint32",
          "name": "",
          "type": "uint32"
        }
      ],
      "stateMutability": "view",
      "type": "function"
    },
    {
      "inputs": [
        {
          "internalType": "uint32",
          "name": "",
          "type": "uint32"
        }
      ],
      "name": "evaluationPeriods",
      "outputs": [
        {
          "internalType": "uint256",
          "name": "startTime",
          "type": "uint256"
        },
        {
          "internalType": "uint256",
          "name": "endTime",
          "type": "uint256"
        },
        {
          "internalType": "bool",
          "name": "isActive",
          "type": "bool"
        },
        {
          "internalType": "uint32",
          "name": "totalProjects",
          "type": "uint32"
        }
      ],
      "stateMutability": "view",
      "type": "function"
    },
    {
      "inputs": [
        {
          "internalType": "uint32",
          "name": "",
          "type": "uint32"
        },
        {
          "internalType": "address",
          "name": "",
          "type": "address"
        }
      ],
      "name": "evaluations",
      "outputs": [
        {
          "internalType": "euint8",
          "name": "innovation",
          "type": "bytes32"
        },
        {
          "internalType": "euint8",
          "name": "feasibility",
          "type": "bytes32"
        },
        {
          "internalType": "euint8",
          "name": "impact",
          "type": "bytes32"
        },
        {
          "internalType": "euint8",
          "name": "technical",
          "type": "bytes32"
        },
        {
          "internalType": "euint32",
          "name": "totalScore",
          "type": "bytes32"
        },
        {
          "internalType": "bool",
          "name": "submitted",
          "type": "bool"
        },
        {
          "internalType": "uint256",
          "name": "timestamp",
          "type": "uint256"
        }
      ],
      "stateMutability": "view",
      "type": "function"
    },
    {
      "inputs": [],
      "name": "getCurrentEvaluationPeriod",
      "outputs": [
        {
          "internalType": "uint32",
          "name": "",
          "type": "uint32"
        }
      ],
      "stateMutability": "view",
      "type": "function"
    },
    {
      "inputs": [
        {
          "internalType": "uint32",
          "name": "periodId",
          "type": "uint32"
        }
      ],
      "name": "getEvaluationPeriodInfo",
      "outputs": [
        {
          "internalType": "uint256",
          "name": "startTime",
          "type": "uint256"
        },
        {
          "internalType": "uint256",
          "name": "endTime",
          "type": "uint256"
        },
        {
          "internalType": "bool",
          "name": "isActive",
          "type": "bool"
        },
        {
          "internalType": "uint32",
          "name": "totalProjects",
          "type": "uint32"
        }
      ],
      "stateMutability": "view",
      "type": "function"
    },
    {
      "inputs": [
        {
          "internalType": "uint32",
          "name": "projectId",
          "type": "uint32"
        }
      ],
      "name": "getProjectInfo",
      "outputs": [
        {
          "internalType": "string",
          "name": "title",
          "type": "string"
        },
        {
          "internalType": "string",
          "name": "description",
          "type": "string"
        },
        {
          "internalType": "address",
          "name": "submitter",
          "type": "address"
        },
        {
          "internalType": "bool",
          "name": "isActive",
          "type": "bool"
        },
        {
          "internalType": "uint256",
          "name": "submissionTime",
          "type": "uint256"
        },
        {
          "internalType": "uint32",
          "name": "totalEvaluations",
          "type": "uint32"
        },
        {
          "internalType": "bool",
          "name": "resultsRevealed",
          "type": "bool"
        },
        {
          "internalType": "uint32",
          "name": "finalScore",
          "type": "uint32"
        },
        {
          "internalType": "uint32",
          "name": "ranking",
          "type": "uint32"
        }
      ],
      "stateMutability": "view",
      "type": "function"
    },
    {
      "inputs": [
        {
          "internalType": "uint32",
          "name": "periodId",
          "type": "uint32"
        }
      ],
      "name": "getProjectsByPeriod",
      "outputs": [
        {
          "internalType": "uint32[]",
          "name": "",
          "type": "uint32[]"
        }
      ],
      "stateMutability": "view",
      "type": "function"
    },
    {
      "inputs": [
        {
          "internalType": "uint32",
          "name": "periodId",
          "type": "uint32"
        },
        {
          "internalType": "uint32",
          "name": "rank",
          "type": "uint32"
        }
      ],
      "name": "getRankedProject",
      "outputs": [
        {
          "internalType": "uint32",
          "name": "",
          "type": "uint32"
        }
      ],
      "stateMutability": "view",
      "type": "function"
    },
    {
      "inputs": [
        {
          "internalType": "uint32",
          "name": "projectId",
          "type": "uint32"
        },
        {
          "internalType": "address",
          "name": "evaluator",
          "type": "address"
        }
      ],
      "name": "hasEvaluated",
      "outputs": [
        {
          "internalType": "bool",
          "name": "",
          "type": "bool"
        }
      ],
      "stateMutability": "view",
      "type": "function"
    },
    {
      "inputs": [],
      "name": "nextProjectId",
      "outputs": [
        {
          "internalType": "uint32",
          "name": "",
          "type": "uint32"
        }
      ],
      "stateMutability": "view",
      "type": "function"
    },
    {
      "inputs": [],
      "name": "owner",
      "outputs": [
        {
          "internalType": "address",
          "name": "",
          "type": "address"
        }
      ],
      "stateMutability": "view",
      "type": "function"
    },
    {
      "inputs": [
        {
          "internalType": "uint32",
          "name": "",
          "type": "uint32"
        },
        {
          "internalType": "uint32",
          "name": "",
          "type": "uint32"
        }
      ],
      "name": "periodRankings",
      "outputs": [
        {
          "internalType": "uint32",
          "name": "",
          "type": "uint32"
        }
      ],
      "stateMutability": "view",
      "type": "function"
    },
    {
      "inputs": [
        {
          "internalType": "uint256",
          "name": "requestId",
          "type": "uint256"
        },
        {
          "internalType": "bytes",
          "name": "cleartexts",
          "type": "bytes"
        },
        {
          "internalType": "bytes",
          "name": "decryptionProof",
          "type": "bytes"
        }
      ],
      "name": "processRevealResults",
      "outputs": [],
      "stateMutability": "nonpayable",
      "type": "function"
    },
    {
      "inputs": [
        {
          "internalType": "uint32",
          "name": "",
          "type": "uint32"
        }
      ],
      "name": "projects",
      "outputs": [
        {
          "internalType": "string",
          "name": "title",
          "type": "string"
        },
        {
          "internalType": "string",
          "name": "description",
          "type": "string"
        },
        {
          "internalType": "address",
          "name": "submitter",
          "type": "address"
        },
        {
          "internalType": "bool",
          "name": "isActive",
          "type": "bool"
        },
        {
          "internalType": "uint256",
          "name": "submissionTime",
          "type": "uint256"
        },
        {
          "internalType": "uint32",
          "name": "totalEvaluations",
          "type": "uint32"
        },
        {
          "internalType": "euint32",
          "name": "encryptedTotalScore",
          "type": "bytes32"
        },
        {
          "internalType": "bool",
          "name": "resultsRevealed",
          "type": "bool"
        },
        {
          "internalType": "uint32",
          "name": "finalScore",
          "type": "uint32"
        },
        {
          "internalType": "uint32",
          "name": "ranking",
          "type": "uint32"
        }
      ],
      "stateMutability": "view",
      "type": "function"
    },
    {
      "inputs": [],
      "name": "protocolId",
      "outputs": [
        {
          "internalType": "uint256",
          "name": "",
          "type": "uint256"
        }
      ],
      "stateMutability": "pure",
      "type": "function"
    },
    {
      "inputs": [
        {
          "internalType": "uint32",
          "name": "projectId",
          "type": "uint32"
        }
      ],
      "name": "revealResults",
      "outputs": [],
      "stateMutability": "nonpayable",
      "type": "function"
    },
    {
      "inputs": [
        {
          "internalType": "address",
          "name": "evaluator",
          "type": "address"
        }
      ],
      "name": "revokeEvaluator",
      "outputs": [],
      "stateMutability": "nonpayable",
      "type": "function"
    },
    {
      "inputs": [
        {
          "internalType": "uint256",
          "name": "duration",
          "type": "uint256"
        }
      ],
      "name": "startEvaluationPeriod",
      "outputs": [],
      "stateMutability": "nonpayable",
      "type": "function"
    },
    {
      "inputs": [
        {
          "internalType": "uint32",
          "name": "projectId",
          "type": "uint32"
        },
        {
          "internalType": "uint8",
          "name": "innovationScore",
          "type": "uint8"
        },
        {
          "internalType": "uint8",
          "name": "feasibilityScore",
          "type": "uint8"
        },
        {
          "internalType": "uint8",
          "name": "impactScore",
          "type": "uint8"
        },
        {
          "internalType": "uint8",
          "name": "technicalScore",
          "type": "uint8"
        }
      ],
      "name": "submitEvaluation",
      "outputs": [],
      "stateMutability": "nonpayable",
      "type": "function"
    },
    {
      "inputs": [
        {
          "internalType": "string",
          "name": "title",
          "type": "string"
        },
        {
          "internalType": "string",
          "name": "description",
          "type": "string"
        }
      ],
      "name": "submitProject",
      "outputs": [],
      "stateMutability": "nonpayable",
      "type": "function"
    }
  ],
  "bytecode": "0x608060405234801562000010575f80fd5b506200018d620000b1604080516080810182525f80825260208201819052918101829052606081019190915250604080516080810182527350157cffd6bbfa2dece204a89ec419c23ef5755d815273cd3ab3bd6bcc0c0bf3e27912a92043e817b1cf69602082015273a02cda4ca3a71d7c46997716f4283aa851c2881291810191909152731364cbbf2cdf5032c47d8226a6f6fbd2afcdacac606082015290565b80517f9e7b61f58c47dc699ac88507c4f5bb9f121c03808c5676a8078fe583e464970080546001600160a01b03199081166001600160a01b039384161790915560208301517f9e7b61f58c47dc699ac88507c4f5bb9f121c03808c5676a8078fe583e46497018054831691841691909117905560408301517f9e7b61f58c47dc699ac88507c4f5bb9f121c03808c5676a8078fe583e46497028054831691841691909117905560608301517f9e7b61f58c47dc699ac88507c4f5bb9f121c03808c5676a8078fe583e46497038054909216921691909117905550565b5f805463ffffffff60c01b1963ffffffff60a01b1933166001600160c01b031990921691909117600160a01b1716600160c01b9081178083550463ffffffff1681526002602052604090204290819055620001ec9062278d006200024f565b5f805463ffffffff600160c01b9182900481168352600260208190526040808520600190810196909655845484900483168552808520909101805460ff191690951790945582549190910416815220600501805463ffffffff1916905562000275565b808201808211156200026f57634e487b7160e01b5f52601160045260245ffd5b92915050565b61286380620002835f395ff3fe608060405234801561000f575f80fd5b5060043610610184575f3560e01c80637ee3e74f116100dd578063d6387b7411610088578063ee771a3b11610063578063ee771a3b14610463578063f32e0260146104a6578063ffd10afe146104ec575f80fd5b8063d6387b7414610435578063da1f12ab1461043d578063e935b7b11461044d575f80fd5b80639bc1dc38116100b85780639bc1dc38146103e6578063a3ae87881461040e578063c12884ce14610421575f80fd5b80637ee3e74f146103895780638da5cb5b1461039c57806396702fa4146103c6575f80fd5b80634609718f1161013d5780635fe09679116101185780635fe096791461033057806371b2a85d146103605780637b79bd1514610373575f80fd5b80634609718f146102c35780635ca05a08146102f55780635e2765be14610308575f80fd5b806327b8a3cc1161016d57806327b8a3cc146101b0578063377014fa146102205780633d106908146102b0575f80fd5b8063160f5696146101885780631e8e68d31461019d575b5f80fd5b61019b6101963660046120a4565b610515565b005b61019b6101ab3660046120d6565b6106a9565b6101ef6101be366004612103565b600260208190525f9182526040909120805460018201549282015460059092015490929160ff169063ffffffff1684565b6040805194855260208501939093529015159183019190915263ffffffff1660608201526080015b60405180910390f35b61027961022e36600461211e565b600360208181525f9384526040808520909152918352912080546001820154600283015493830154600484015460058501546006909501549395929492939192909160ff9091169087565b6040805197885260208801969096529486019390935260608501919091526080840152151560a083015260c082015260e001610217565b61019b6102be3660046121ee565b61073e565b6102e56102d13660046120d6565b60046020525f908152604090205460ff1681565b6040519015158152602001610217565b61019b610303366004612103565b610934565b61031b610316366004612256565b610b27565b60405163ffffffff9091168152602001610217565b61031b61033e366004612256565b600560209081525f928352604080842090915290825290205463ffffffff1681565b61019b61036e36600461229d565b610b52565b5f5461031b90600160c01b900463ffffffff1681565b61019b610397366004612300565b610f19565b5f546103ae906001600160a01b031681565b6040516001600160a01b039091168152602001610217565b6103d96103d4366004612103565b61121a565b6040516102179190612360565b6103f96103f4366004612103565b6112ae565b604051610217999897969594939291906123f6565b61019b61041c3660046120d6565b61145b565b5f54600160c01b900463ffffffff1661031b565b61019b6114ed565b6040516127118152602001610217565b5f5461031b90600160a01b900463ffffffff1681565b6102e561047136600461211e565b63ffffffff82165f9081526003602090815260408083206001600160a01b038516845290915290206005015460ff1692915050565b6101ef6104b4366004612103565b63ffffffff9081165f90815260026020819052604090912080546001820154928201546005909201549094929360ff90921692911690565b6104ff6104fa366004612103565b611670565b6040516102179a9998979695949392919061246a565b5f546001600160a01b031633146105645760405162461bcd60e51b815260206004820152600e60248201526d139bdd08185d5d1a1bdc9a5e995960921b60448201526064015b60405180910390fd5b5f8054600160c01b900463ffffffff168152600260208190526040909120015460ff16156105d45760405162461bcd60e51b815260206004820152601560248201527f506572696f6420616c7265616479206163746976650000000000000000000000604482015260640161055b565b5f8054600160c01b900463ffffffff16815260026020526040902042908190556105ff9082906124fa565b5f805463ffffffff600160c01b9182900481168352600260208190526040808520600190810196909655845484900483168552808520909101805460ff1916909517909455825482900481168352928220600501805463ffffffff19169055905404167ff90ff14cd5584794bb1723153aa399eac4e31a9597fc928c053fabcbf5201d804261068e84826124fa565b6040805192835260208301919091520160405180910390a250565b5f546001600160a01b031633146106f35760405162461bcd60e51b815260206004820152600e60248201526d139bdd08185d5d1a1bdc9a5e995960921b604482015260640161055b565b6001600160a01b0381165f81815260046020526040808220805460ff19166001179055517fc805192fd3ccd7d98bdc06bd258995156ff8ae946362ee0293da98a1dc636cd09190a250565b6107498383836117ec565b5f8280602001905181019061075e919061250d565b905060015b5f5463ffffffff600160a01b9091048116908216101561092d5763ffffffff81165f9081526001602052604090206006015460ff161580156107bd575063ffffffff8082165f908152600160205260409020600401541615155b156109255763ffffffff8082165f908152600160205260408120600401549091166107e8575f61080c565b63ffffffff8083165f9081526001602052604090206004015461080c911684612528565b63ffffffff8381165f9081526001602081905260408220600601805464ffffffffff19166101009486169490940260ff191693909317179091559091506108538383611855565b63ffffffff8481165f9081526001602081905260408220600601805468ffffffff000000000019166501000000000086861602179055815493945086936005936108a59291600160c01b900416612556565b63ffffffff908116825260208083019390935260409182015f90812086831680835290855290839020805463ffffffff1916958316959095179094558151868216815292830193909352918516917fc1f84ae7f508caee9294831dfa19e99852a1a53fff923d279048431098b78806910160405180910390a2505061092d565b600101610763565b5050505050565b5f546001600160a01b0316331461097e5760405162461bcd60e51b815260206004820152600e60248201526d139bdd08185d5d1a1bdc9a5e995960921b604482015260640161055b565b63ffffffff81165f90815260016020526040902060020154600160a01b900460ff166109ec5760405162461bcd60e51b815260206004820152601260248201527f50726f6a656374206e6f74206163746976650000000000000000000000000000604482015260640161055b565b63ffffffff81165f9081526001602052604090206006015460ff1615610a545760405162461bcd60e51b815260206004820152601860248201527f526573756c747320616c72656164792072657665616c65640000000000000000604482015260640161055b565b63ffffffff8082165f9081526001602052604090206004015416610aba5760405162461bcd60e51b815260206004820152600e60248201527f4e6f206576616c756174696f6e73000000000000000000000000000000000000604482015260640161055b565b6040805160018082528183019092525f91602080830190803683370190505063ffffffff83165f90815260016020526040902060050154909150815f81518110610b0657610b0661257a565b6020908102919091010152610b22816307a20d2160e31b6119a8565b505050565b63ffffffff8083165f9081526005602090815260408083208585168452909152902054165b92915050565b63ffffffff85165f90815260016020526040902060020154600160a01b900460ff16610bc05760405162461bcd60e51b815260206004820152601260248201527f50726f6a656374206e6f74206163746976650000000000000000000000000000604482015260640161055b565b63ffffffff85165f90815260036020908152604080832033845290915290206005015460ff1615610c335760405162461bcd60e51b815260206004820152601160248201527f416c7265616479206576616c7561746564000000000000000000000000000000604482015260640161055b565b600a8460ff1611158015610c4b5750600a8360ff1611155b8015610c5b5750600a8260ff1611155b8015610c6b5750600a8160ff1611155b610cb75760405162461bcd60e51b815260206004820152601360248201527f53636f726573206d75737420626520302d313000000000000000000000000000604482015260640161055b565b5f610cc1856119bb565b90505f610ccd856119bb565b90505f610cd9856119bb565b90505f610ce5856119bb565b90505f610d1a610d05610cf7876119ca565b610d00876119ca565b6119d6565b610d00610d11866119ca565b610d00866119ca565b90506040518060e001604052808681526020018581526020018481526020018381526020018281526020016001151581526020014281525060035f8c63ffffffff1663ffffffff1681526020019081526020015f205f336001600160a01b03166001600160a01b031681526020019081526020015f205f820151815f01556020820151816001015560408201518160020155606082015181600301556080820151816004015560a0820151816005015f6101000a81548160ff02191690831515021790555060c08201518160060155905050610e1660015f8c63ffffffff1663ffffffff1681526020019081526020015f2060050154826119d6565b63ffffffff808c165f90815260016020526040812060058101939093556004909201805490911691610e478361258e565b91906101000a81548163ffffffff021916908363ffffffff16021790555050610e6f85611a04565b50610e7984611a04565b50610e8383611a04565b50610e8d82611a04565b50610e9781611a04565b5063ffffffff8a165f90815260016020526040902060050154610eb990611a04565b50610ec48133611a13565b505f5460405163ffffffff600160c01b9092048216815233918c16907f963317c5d197bb779623149073c0c3cba84cf2cdd86ec16bef13fcac140366ec9060200160405180910390a350505050505050505050565b5f8054600160a01b900463ffffffff16816014610f358361258e565b91906101000a81548163ffffffff021916908363ffffffff1602179055509050604051806101400160405280848152602001838152602001336001600160a01b031681526020016001151581526020014281526020015f63ffffffff168152602001610fa05f611a25565b81525f60208083018290526040808401839052606090930182905263ffffffff85168252600190522081518190610fd7908261262c565b5060208201516001820190610fec908261262c565b506040828101516002838101805460608701516001600160a01b039094167fffffffffffffffffffffff00000000000000000000000000000000000000000090911617600160a01b93151593909302929092179091556080840151600384015560a084015160048401805463ffffffff191663ffffffff92831617905560c0850151600585015560e085015160069094018054610100808801516101209098015164ffffffffff1990921696151564ffffffff001916969096179683169095029590951768ffffffff000000000019166501000000000094821694909402939093179093555f8054600160c01b9004909216825260208390529020015460ff16156111ab575f8054600160c01b9081900463ffffffff908116835260026020818152604080862060030180546001808201835591885283882060088204018054600790921660049081026101000a808902199093168b891693840217909155885488900487168952838920918952018352818720805460ff19169091179055855494909404831685525290822060050180549091169161118b8361258e565b91906101000a81548163ffffffff021916908363ffffffff160217905550505b63ffffffff81165f908152600160205260409020600501546111cc90611a04565b50336001600160a01b03168163ffffffff167f4adb4d77b4f03459dbd9f866a0ce238f31aca8ebf5eaf890e79de756848e0e478560405161120d91906126ec565b60405180910390a3505050565b63ffffffff81165f908152600260209081526040918290206003018054835181840281018401909452808452606093928301828280156112a257602002820191905f5260205f20905f905b82829054906101000a900463ffffffff1663ffffffff16815260200190600401906020826003010492830192600103820291508084116112655790505b50505050509050919050565b63ffffffff8082165f908152600160208190526040822060028101546003820154600483015460068401548454606098899897889788978897889788978897949687968701956001600160a01b0386169560ff600160a01b909104811695948316939081169261010082048116926501000000000090920416908990611333906125b0565b80601f016020809104026020016040519081016040528092919081815260200182805461135f906125b0565b80156113aa5780601f10611381576101008083540402835291602001916113aa565b820191905f5260205f20905b81548152906001019060200180831161138d57829003601f168201915b505050505098508780546113bd906125b0565b80601f01602080910402602001604051908101604052809291908181526020018280546113e9906125b0565b80156114345780601f1061140b57610100808354040283529160200191611434565b820191905f5260205f20905b81548152906001019060200180831161141757829003601f168201915b50505050509750995099509950995099509950995099509950509193959799909294969850565b5f546001600160a01b031633146114a55760405162461bcd60e51b815260206004820152600e60248201526d139bdd08185d5d1a1bdc9a5e995960921b604482015260640161055b565b6001600160a01b0381165f81815260046020526040808220805460ff19169055517f718b73897cc8631ec09c3e42bd021b9e75bdeab3f6918333c917aeea888dfff89190a250565b5f546001600160a01b031633146115375760405162461bcd60e51b815260206004820152600e60248201526d139bdd08185d5d1a1bdc9a5e995960921b604482015260640161055b565b5f8054600160c01b900463ffffffff168152600260208190526040909120015460ff166115a65760405162461bcd60e51b815260206004820152601060248201527f4e6f2061637469766520706572696f6400000000000000000000000000000000604482015260640161055b565b5f8054600160c01b900463ffffffff1681526002602052604090206001015442116116135760405162461bcd60e51b815260206004820152601060248201527f506572696f64206e6f7420656e64656400000000000000000000000000000000604482015260640161055b565b5f805463ffffffff600160c01b9182900481168352600260208190526040842001805460ff191690558254919091041690601861164f8361258e565b91906101000a81548163ffffffff021916908363ffffffff16021790555050565b60016020525f908152604090208054819061168a906125b0565b80601f01602080910402602001604051908101604052809291908181526020018280546116b6906125b0565b80156117015780601f106116d857610100808354040283529160200191611701565b820191905f5260205f20905b8154815290600101906020018083116116e457829003601f168201915b505050505090806001018054611716906125b0565b80601f0160208091040260200160405190810160405280929190818152602001828054611742906125b0565b801561178d5780601f106117645761010080835404028352916020019161178d565b820191905f5260205f20905b81548152906001019060200180831161177057829003601f168201915b505050600284015460038501546004860154600587015460069097015495966001600160a01b0384169660ff600160a01b9095048516965092945063ffffffff918216939092908116916101008204811691650100000000009004168a565b5f6117f684611a37565b90505f611804828585611b08565b9050806118245760405163cf6c44e960e01b815260040160405180910390fd5b60405185907f1af0453083661051f6e56e5c070792320652e612154bf9af8637bb1e7655b99d905f90a25050505050565b5f80546001908290600160c01b900463ffffffff16611882575f54600160c01b900463ffffffff1661189d565b5f5461189d90600190600160c01b900463ffffffff16612556565b90505f5b63ffffffff8083165f90815260026020526040902060030154908216101561199e575f60025f8463ffffffff1663ffffffff1681526020019081526020015f206003018263ffffffff16815481106118fb576118fb61257a565b5f918252602090912060088204015460079091166004026101000a900463ffffffff90811691508716811480159061194a575063ffffffff81165f9081526001602052604090206006015460ff165b8015611978575063ffffffff8181165f90815260016020526040902060060154818816610100909104909116115b1561198b57836119878161258e565b9450505b50806119968161258e565b9150506118a1565b5090949350505050565b5f6119b483835f611bf4565b9392505050565b5f610b4c8260ff166002611d22565b5f610b4c826004611ddf565b5f826119e8576119e55f611a25565b92505b816119f9576119f65f611a25565b91505b6119b483835f611e54565b5f611a0f8230611f34565b5090565b5f611a1e8383611f34565b5090919050565b5f610b4c8263ffffffff166004611d22565b5f8181527f878245876662ba28a480c5ea71726db859fb50222b0a3d7cbbc21cfa336faf0160205260408120546060917f878245876662ba28a480c5ea71726db859fb50222b0a3d7cbbc21cfa336faf00919003611aa85760405163d66ca67560e01b815260040160405180910390fd5b5f83815260018201602090815260409182902080548351818402810184019094528084529091830182828015611afb57602002820191905f5260205f20905b815481526020019060010190808311611ae7575b5050505050915050919050565b5f8083516020611b1891906124fa565b611b239060206124fa565b90505f8482604051602001611b399291906126fe565b60405160208183030381529060405290505f611b727f9e7b61f58c47dc699ac88507c4f5bb9f121c03808c5676a8078fe583e464970090565b60038101546040516378542ead60e01b81529192506001600160a01b0316906378542ead90611ba9908a9086908a90600401612759565b6020604051808303815f875af1158015611bc5573d5f803e3d5ffd5b505050506040513d601f19601f82011682018060405250810190611be99190612791565b979650505050505050565b7f878245876662ba28a480c5ea71726db859fb50222b0a3d7cbbc21cfa336faf0080547f9e7b61f58c47dc699ac88507c4f5bb9f121c03808c5676a8078fe583e46497008054604051637d6e912360e11b81529293926001600160a01b039091169063fadd224690611c6a9089906004016127b0565b5f604051808303815f87803b158015611c81575f80fd5b505af1158015611c93573d5f803e3d5ffd5b5050506002820154604051633263b83b60e01b81526001600160a01b039091169150633263b83b908690611ccf9087908b908b906004016127c2565b5f604051808303818588803b158015611ce6575f80fd5b505af1158015611cf8573d5f803e3d5ffd5b5050505050611d078387611fbd565b8154825f611d14836127f3565b919050555050509392505050565b7f9e7b61f58c47dc699ac88507c4f5bb9f121c03808c5676a8078fe583e464970154604051639cd07acb60e01b81525f917f9e7b61f58c47dc699ac88507c4f5bb9f121c03808c5676a8078fe583e4649700916001600160a01b0390911690639cd07acb90611d97908790879060040161282b565b6020604051808303815f875af1158015611db3573d5f803e3d5ffd5b505050506040513d601f19601f82011682018060405250810190611dd7919061283f565b949350505050565b7f9e7b61f58c47dc699ac88507c4f5bb9f121c03808c5676a8078fe583e4649701546040516307227b9160e21b81525f917f9e7b61f58c47dc699ac88507c4f5bb9f121c03808c5676a8078fe583e4649700916001600160a01b0390911690631c89ee4490611d97908790879060040161282b565b5f808215611e675750600160f81b611e6a565b505f5b5f7f9e7b61f58c47dc699ac88507c4f5bb9f121c03808c5676a8078fe583e4649700600181015460405163022f65e760e31b815260048101899052602481018890527fff00000000000000000000000000000000000000000000000000000000000000851660448201529192506001600160a01b03169063117b2f38906064016020604051808303815f875af1158015611f06573d5f803e3d5ffd5b505050506040513d601f19601f82011682018060405250810190611f2a919061283f565b9695505050505050565b5f7f9e7b61f58c47dc699ac88507c4f5bb9f121c03808c5676a8078fe583e46497008054604051635ca4b5b160e11b8152600481018690526001600160a01b03858116602483015292935091169063b9496b62906044015f604051808303815f87803b158015611fa2575f80fd5b505af1158015611fb4573d5f803e3d5ffd5b50505050505050565b5f8281527f878245876662ba28a480c5ea71726db859fb50222b0a3d7cbbc21cfa336faf0160205260409020547f878245876662ba28a480c5ea71726db859fb50222b0a3d7cbbc21cfa336faf00901561202a57604051633f06d22b60e01b815260040160405180910390fd5b5f8381526001820160209081526040909120835161204a92850190612050565b50505050565b828054828255905f5260205f20908101928215612089579160200282015b8281111561208957825182559160200191906001019061206e565b50611a0f9291505b80821115611a0f575f8155600101612091565b5f602082840312156120b4575f80fd5b5035919050565b80356001600160a01b03811681146120d1575f80fd5b919050565b5f602082840312156120e6575f80fd5b6119b4826120bb565b63ffffffff81168114612100575f80fd5b50565b5f60208284031215612113575f80fd5b81356119b4816120ef565b5f806040838503121561212f575f80fd5b823561213a816120ef565b9150612148602084016120bb565b90509250929050565b634e487b7160e01b5f52604160045260245ffd5b5f82601f830112612174575f80fd5b813567ffffffffffffffff8082111561218f5761218f612151565b604051601f8301601f19908116603f011681019082821181831017156121b7576121b7612151565b816040528381528660208588010111156121cf575f80fd5b836020870160208301375f602085830101528094505050505092915050565b5f805f60608486031215612200575f80fd5b83359250602084013567ffffffffffffffff8082111561221e575f80fd5b61222a87838801612165565b9350604086013591508082111561223f575f80fd5b5061224c86828701612165565b9150509250925092565b5f8060408385031215612267575f80fd5b8235612272816120ef565b91506020830135612282816120ef565b809150509250929050565b803560ff811681146120d1575f80fd5b5f805f805f60a086880312156122b1575f80fd5b85356122bc816120ef565b94506122ca6020870161228d565b93506122d86040870161228d565b92506122e66060870161228d565b91506122f46080870161228d565b90509295509295909350565b5f8060408385031215612311575f80fd5b823567ffffffffffffffff80821115612328575f80fd5b61233486838701612165565b93506020850135915080821115612349575f80fd5b5061235685828601612165565b9150509250929050565b602080825282518282018190525f9190848201906040850190845b8181101561239d57835163ffffffff168352928401929184019160010161237b565b50909695505050505050565b5f5b838110156123c35781810151838201526020016123ab565b50505f910152565b5f81518084526123e28160208601602086016123a9565b601f01601f19169290920160200192915050565b5f6101208083526124098184018d6123cb565b9050828103602084015261241d818c6123cb565b6001600160a01b039a909a16604084015250509515156060870152608086019490945263ffffffff92831660a086015290151560c0850152811660e0840152166101009091015292915050565b5f61014080835261247d8184018e6123cb565b90508281036020840152612491818d6123cb565b6001600160a01b039b909b16604084015250509615156060880152608087019590955263ffffffff93841660a087015260c0860192909252151560e08501528116610100840152166101209091015292915050565b634e487b7160e01b5f52601160045260245ffd5b80820180821115610b4c57610b4c6124e6565b5f6020828403121561251d575f80fd5b81516119b4816120ef565b5f63ffffffff8084168061254a57634e487b7160e01b5f52601260045260245ffd5b92169190910492915050565b63ffffffff828116828216039080821115612573576125736124e6565b5092915050565b634e487b7160e01b5f52603260045260245ffd5b5f63ffffffff8083168181036125a6576125a66124e6565b6001019392505050565b600181811c908216806125c457607f821691505b6020821081036125e257634e487b7160e01b5f52602260045260245ffd5b50919050565b601f821115610b2257805f5260205f20601f840160051c8101602085101561260d5750805b601f840160051c820191505b8181101561092d575f8155600101612619565b815167ffffffffffffffff81111561264657612646612151565b61265a8161265484546125b0565b846125e8565b602080601f83116001811461268d575f84156126765750858301515b5f19600386901b1c1916600185901b1785556126e4565b5f85815260208120601f198616915b828110156126bb5788860151825594840194600190910190840161269c565b50858210156126d857878501515f19600388901b60f8161c191681555b505060018460011b0185555b505050505050565b602081525f6119b460208301846123cb565b5f835161270f8184602088016123a9565b9190910191825250602001919050565b5f815180845260208085019450602084015f5b8381101561274e57815187529582019590820190600101612732565b509495945050505050565b606081525f61276b606083018661271f565b828103602084015261277d81866123cb565b90508281036040840152611f2a81856123cb565b5f602082840312156127a1575f80fd5b815180151581146119b4575f80fd5b602081525f6119b4602083018461271f565b838152606060208201525f6127da606083018561271f565b905063ffffffff60e01b83166040830152949350505050565b5f60018201612804576128046124e6565b5060010190565b6054811061282757634e487b7160e01b5f52602160045260245ffd5b9052565b828152604081016119b4602083018461280b565b5f6020828403121561284f575f80fd5b505191905056fea164736f6c6343000818000a",
  "linkReferences": {},
  "deployedLinkReferences": {}
}